{
  "contractName": "secondOpinion",
  "abi": [
    {
      "inputs": [],
      "payable": false,
      "stateMutability": "nonpayable",
      "type": "constructor"
    },
    {
      "anonymous": false,
      "inputs": [
        {
          "indexed": false,
          "internalType": "address",
          "name": "lawyer1",
          "type": "address"
        },
        {
          "indexed": false,
          "internalType": "address",
          "name": "lawyer2",
          "type": "address"
        }
      ],
      "name": "AssessmentStartsEvent",
      "type": "event"
    },
    {
      "anonymous": false,
      "inputs": [
        {
          "indexed": false,
          "internalType": "uint256",
          "name": "lawyer1Assessment",
          "type": "uint256"
        },
        {
          "indexed": false,
          "internalType": "uint256",
          "name": "lawyer2Assessment",
          "type": "uint256"
        }
      ],
      "name": "EndOfRoundEvent",
      "type": "event"
    },
    {
      "anonymous": false,
      "inputs": [
        {
          "indexed": false,
          "internalType": "address",
          "name": "winner",
          "type": "address"
        },
        {
          "indexed": false,
          "internalType": "uint256",
          "name": "gains",
          "type": "uint256"
        }
      ],
      "name": "assessmentFinishedEvent",
      "type": "event"
    },
    {
      "constant": true,
      "inputs": [],
      "name": "assessmentFinished",
      "outputs": [
        {
          "internalType": "bool",
          "name": "",
          "type": "bool"
        }
      ],
      "payable": false,
      "stateMutability": "view",
      "type": "function"
    },
    {
      "constant": true,
      "inputs": [],
      "name": "lawyer1",
      "outputs": [
        {
          "internalType": "address",
          "name": "",
          "type": "address"
        }
      ],
      "payable": false,
      "stateMutability": "view",
      "type": "function"
    },
    {
      "constant": true,
      "inputs": [],
      "name": "lawyer1assessed",
      "outputs": [
        {
          "internalType": "bool",
          "name": "",
          "type": "bool"
        }
      ],
      "payable": false,
      "stateMutability": "view",
      "type": "function"
    },
    {
      "constant": true,
      "inputs": [],
      "name": "lawyer2",
      "outputs": [
        {
          "internalType": "address",
          "name": "",
          "type": "address"
        }
      ],
      "payable": false,
      "stateMutability": "view",
      "type": "function"
    },
    {
      "constant": true,
      "inputs": [],
      "name": "lawyer2assessed",
      "outputs": [
        {
          "internalType": "bool",
          "name": "",
          "type": "bool"
        }
      ],
      "payable": false,
      "stateMutability": "view",
      "type": "function"
    },
    {
      "constant": true,
      "inputs": [],
      "name": "theWinner",
      "outputs": [
        {
          "internalType": "address",
          "name": "",
          "type": "address"
        }
      ],
      "payable": false,
      "stateMutability": "view",
      "type": "function"
    },
    {
      "constant": false,
      "inputs": [],
      "name": "registerAsAnOpponent",
      "outputs": [],
      "payable": false,
      "stateMutability": "nonpayable",
      "type": "function"
    },
    {
      "constant": false,
      "inputs": [],
      "name": "assess",
      "outputs": [],
      "payable": true,
      "stateMutability": "payable",
      "type": "function"
    },
    {
      "constant": false,
      "inputs": [],
      "name": "withdraw",
      "outputs": [],
      "payable": false,
      "stateMutability": "nonpayable",
      "type": "function"
    }
  ],
  "bytecode": "0x608060405234801561001057600080fd5b50336000806101000a81548173ffffffffffffffffffffffffffffffffffffffff021916908373ffffffffffffffffffffffffffffffffffffffff160217905550610945806100606000396000f3fe6080604052600436106100865760003560e01c80639d24e482116100595780639d24e48214610157578063a6a25e88146101ae578063a8b42f1f146101b8578063bf5b68f1146101cf578063db23e77f146101fe57610086565b80630c411d391461008b5780633ccfd60b146100ba578063467738fc146100d157806350eb300414610128575b600080fd5b34801561009757600080fd5b506100a0610255565b604051808215151515815260200191505060405180910390f35b3480156100c657600080fd5b506100cf610268565b005b3480156100dd57600080fd5b506100e6610333565b604051808273ffffffffffffffffffffffffffffffffffffffff1673ffffffffffffffffffffffffffffffffffffffff16815260200191505060405180910390f35b34801561013457600080fd5b5061013d610358565b604051808215151515815260200191505060405180910390f35b34801561016357600080fd5b5061016c61036b565b604051808273ffffffffffffffffffffffffffffffffffffffff1673ffffffffffffffffffffffffffffffffffffffff16815260200191505060405180910390f35b6101b6610391565b005b3480156101c457600080fd5b506101cd61060b565b005b3480156101db57600080fd5b506101e4610783565b604051808215151515815260200191505060405180910390f35b34801561020a57600080fd5b50610213610796565b604051808273ffffffffffffffffffffffffffffffffffffffff1673ffffffffffffffffffffffffffffffffffffffff16815260200191505060405180910390f35b600460009054906101000a900460ff1681565b600460009054906101000a900460ff1680156102d157503373ffffffffffffffffffffffffffffffffffffffff16600460019054906101000a900473ffffffffffffffffffffffffffffffffffffffff1673ffffffffffffffffffffffffffffffffffffffff16145b6102da57600080fd5b6000600554905060006005819055503373ffffffffffffffffffffffffffffffffffffffff166108fc829081150290604051600060405180830381858888f1935050505015801561032f573d6000803e3d6000fd5b5050565b6000809054906101000a900473ffffffffffffffffffffffffffffffffffffffff1681565b600160149054906101000a900460ff1681565b600460019054906101000a900473ffffffffffffffffffffffffffffffffffffffff1681565b600460009054906101000a900460ff1615801561045257506000809054906101000a900473ffffffffffffffffffffffffffffffffffffffff1673ffffffffffffffffffffffffffffffffffffffff163373ffffffffffffffffffffffffffffffffffffffff1614806104515750600160009054906101000a900473ffffffffffffffffffffffffffffffffffffffff1673ffffffffffffffffffffffffffffffffffffffff163373ffffffffffffffffffffffffffffffffffffffff16145b5b61045b57600080fd5b6000809054906101000a900473ffffffffffffffffffffffffffffffffffffffff1673ffffffffffffffffffffffffffffffffffffffff163373ffffffffffffffffffffffffffffffffffffffff1614156104fa5760001515600160149054906101000a900460ff161515146104d057600080fd5b60018060146101000a81548160ff0219169083151502179055503460025401600281905550610597565b600160009054906101000a900473ffffffffffffffffffffffffffffffffffffffff1673ffffffffffffffffffffffffffffffffffffffff163373ffffffffffffffffffffffffffffffffffffffff1614156105965760001515600160159054906101000a900460ff1615151461057057600080fd5b60018060156101000a81548160ff02191690831515021790555034600354016003819055505b5b600160149054906101000a900460ff1680156105bf5750600160159054906101000a900460ff165b1561060957600354600254106105ff576105fa600160009054906101000a900473ffffffffffffffffffffffffffffffffffffffff166107bc565b610608565b610607610895565b5b5b565b600073ffffffffffffffffffffffffffffffffffffffff16600160009054906101000a900473ffffffffffffffffffffffffffffffffffffffff1673ffffffffffffffffffffffffffffffffffffffff161461066657600080fd5b33600160006101000a81548173ffffffffffffffffffffffffffffffffffffffff021916908373ffffffffffffffffffffffffffffffffffffffff1602179055507f5c0cd3433ab9e1333bab7e23ff511a9d45954f93c3beb477525875a7a9d87f126000809054906101000a900473ffffffffffffffffffffffffffffffffffffffff16600160009054906101000a900473ffffffffffffffffffffffffffffffffffffffff16604051808373ffffffffffffffffffffffffffffffffffffffff1673ffffffffffffffffffffffffffffffffffffffff1681526020018273ffffffffffffffffffffffffffffffffffffffff1673ffffffffffffffffffffffffffffffffffffffff1681526020019250505060405180910390a1565b600160159054906101000a900460ff1681565b600160009054906101000a900473ffffffffffffffffffffffffffffffffffffffff1681565b6001600460006101000a81548160ff02191690831515021790555080600460016101000a81548173ffffffffffffffffffffffffffffffffffffffff021916908373ffffffffffffffffffffffffffffffffffffffff160217905550600354600254016005819055507f85b0a0cb0d057a15633a4a68a49206613e64f03420ee064d2b5780b8ae378e6681600554604051808373ffffffffffffffffffffffffffffffffffffffff1673ffffffffffffffffffffffffffffffffffffffff1681526020018281526020019250505060405180910390a150565b6000600160146101000a81548160ff0219169083151502179055506000600160156101000a81548160ff0219169083151502179055507f4a06b026e39d5ecf4150ef1983227e240bcd23677c8d89479f9521c4e7bed63e600254600354604051808381526020018281526020019250505060405180910390a156fea265627a7a72315820bf490bc0345f250a19f7a2c6af07e74a87e6f231544725d4bddc7110d752e56664736f6c63430005100032",
  "source": "pragma solidity ^0.5.0;\r\n\r\n/**\r\n    * Example script for the Ethereum development walkthrough\r\n    Source URL: \r\n    https://github.com/devzl/ethereum-walkthrough-1/blob/master/Wrestling.sol\r\n    */\r\n\r\ncontract secondOpinion {\r\n    /**\r\n    * Our lawyers\r\n    */\r\n\taddress public lawyer1;\r\n\taddress public lawyer2;\r\n\r\n\tbool public lawyer1assessed;\r\n\tbool public lawyer2assessed;\r\n\r\n\tuint private lawyer1Assessment;\r\n\tuint private lawyer2Assessment;\r\n\r\n\tbool public assessmentFinished;\r\n    address public theWinner;\r\n    uint gains;\r\n\r\n    /**\r\n    * The logs that will be emitted in every step of the contract's life cycle\r\n    */\r\n\tevent AssessmentStartsEvent(address lawyer1, address lawyer2);\r\n\tevent EndOfRoundEvent(uint lawyer1Assessment, uint lawyer2Assessment);\r\n\tevent assessmentFinishedEvent (address winner, uint gains);\r\n\r\n    /**\r\n    * The contract constructor\r\n    */\r\n\tconstructor() public {\r\n\t\tlawyer1 = msg.sender;\r\n\t}\r\n\r\n    /**\r\n    * A second lawyer can register as an opponent\r\n    */\r\n\tfunction registerAsAnOpponent() public {\r\n        require(lawyer2 == address(0));\r\n\r\n        lawyer2 = msg.sender;\r\n\r\n        emit AssessmentStartsEvent(lawyer1, lawyer2);\r\n    }\r\n\r\n    /**\r\n    * Every round a lawyer can put a sum of ether, if one of the lawyers put in twice or\r\n    * less the money (in total) than the other did, the first wins\r\n    */\r\n    function assess() public payable {\r\n    \trequire(!assessmentFinished && (msg.sender == lawyer1 || msg.sender == lawyer2));\r\n\r\n    \tif(msg.sender == lawyer1) {\r\n    \t\trequire(lawyer1assessed == false);\r\n    \t\tlawyer1assessed = true;\r\n    \t\tlawyer1Assessment = lawyer1Assessment + msg.value;\r\n    \t} else if (msg.sender == lawyer2){\r\n    \t\trequire(lawyer2assessed == false);\r\n    \t\tlawyer2assessed = true;\r\n    \t\tlawyer2Assessment = lawyer2Assessment + msg.value;\r\n    \t} \r\n\r\n    \tif(lawyer1assessed && lawyer2assessed) {\r\n    \t\tif(lawyer1Assessment >= lawyer2Assessment) {\r\n                endOfAssessment(lawyer2);\r\n    \t\t} else {\r\n                endOfRound();\r\n            }\r\n    \t}\r\n    }\r\n\r\n    function endOfRound() internal {\r\n    \tlawyer1assessed = false;\r\n    \tlawyer2assessed = false;\r\n\r\n    \temit EndOfRoundEvent(lawyer1Assessment, lawyer2Assessment);\r\n    }\r\n\r\n    function endOfAssessment(address winner) internal {\r\n        assessmentFinished = true;\r\n        theWinner = winner;\r\n\r\n        gains = lawyer1Assessment + lawyer2Assessment;\r\n        emit assessmentFinishedEvent (winner, gains);\r\n    }\r\n\r\n    /**\r\n    * The withdraw function, following the withdraw pattern shown and explained here:\r\n    * http://solidity.readthedocs.io/en/develop/common-patterns.html#withdrawal-from-contracts\r\n    */\r\n    function withdraw() public {\r\n        require(assessmentFinished && theWinner == msg.sender);\r\n\r\n        uint amount = gains;\r\n\r\n        gains = 0;\r\n        msg.sender.transfer(amount);\r\n    }\r\n}",
  "sourcePath": "C:/helloworld/APS1050_Programming_Two/contracts/secondOpinion.sol",
  "compiler": {
    "name": "solc",
    "version": "0.5.16+commit.9c3226ce.Emscripten.clang"
  },
  "schemaVersion": "3.4.0",
  "updatedAt": "2021-04-28T10:03:35.187Z",
  "networkType": "ethereum",
  "devdoc": {
    "methods": {}
  },
  "userdoc": {
    "methods": {
      "assess()": {
        "notice": "Every round a lawyer can put a sum of ether, if one of the lawyers put in twice or less the money (in total) than the other did, the first wins"
      },
      "constructor": "The contract constructor",
      "registerAsAnOpponent()": {
        "notice": "A second lawyer can register as an opponent"
      },
      "withdraw()": {
        "notice": "The withdraw function, following the withdraw pattern shown and explained here: http://solidity.readthedocs.io/en/develop/common-patterns.html#withdrawal-from-contracts"
      }
    },
    "notice": "Example script for the Ethereum development walkthrough Source URL:  https://github.com/devzl/ethereum-walkthrough-1/blob/master/Wrestling.sol"
  }
}