{
  "contractName": "SecondOpinion",
  "abi": [
    {
      "constant": true,
      "inputs": [],
      "name": "assessmentFinished",
      "outputs": [
        {
          "name": "",
          "type": "bool"
        }
      ],
      "payable": false,
      "stateMutability": "view",
      "type": "function"
    },
    {
      "constant": true,
      "inputs": [],
      "name": "lawyer1",
      "outputs": [
        {
          "name": "",
          "type": "address"
        }
      ],
      "payable": false,
      "stateMutability": "view",
      "type": "function"
    },
    {
      "constant": true,
      "inputs": [],
      "name": "lawyer1assessed",
      "outputs": [
        {
          "name": "",
          "type": "bool"
        }
      ],
      "payable": false,
      "stateMutability": "view",
      "type": "function"
    },
    {
      "constant": true,
      "inputs": [],
      "name": "theWinner",
      "outputs": [
        {
          "name": "",
          "type": "address"
        }
      ],
      "payable": false,
      "stateMutability": "view",
      "type": "function"
    },
    {
      "constant": true,
      "inputs": [],
      "name": "lawyer2assessed",
      "outputs": [
        {
          "name": "",
          "type": "bool"
        }
      ],
      "payable": false,
      "stateMutability": "view",
      "type": "function"
    },
    {
      "constant": true,
      "inputs": [],
      "name": "lawyer2",
      "outputs": [
        {
          "name": "",
          "type": "address"
        }
      ],
      "payable": false,
      "stateMutability": "view",
      "type": "function"
    },
    {
      "inputs": [],
      "payable": false,
      "stateMutability": "nonpayable",
      "type": "constructor"
    },
    {
      "anonymous": false,
      "inputs": [
        {
          "indexed": false,
          "name": "lawyer1",
          "type": "address"
        },
        {
          "indexed": false,
          "name": "lawyer2",
          "type": "address"
        }
      ],
      "name": "AssessmentStartsEvent",
      "type": "event"
    },
    {
      "anonymous": false,
      "inputs": [
        {
          "indexed": false,
          "name": "lawyer1Assessment",
          "type": "uint256"
        },
        {
          "indexed": false,
          "name": "lawyer2Assessment",
          "type": "uint256"
        }
      ],
      "name": "EndOfRoundEvent",
      "type": "event"
    },
    {
      "anonymous": false,
      "inputs": [
        {
          "indexed": false,
          "name": "winner",
          "type": "address"
        },
        {
          "indexed": false,
          "name": "gains",
          "type": "uint256"
        }
      ],
      "name": "AssessmentFinishedEvent",
      "type": "event"
    },
    {
      "constant": false,
      "inputs": [],
      "name": "registerAsAnOpponent",
      "outputs": [],
      "payable": false,
      "stateMutability": "nonpayable",
      "type": "function"
    },
    {
      "constant": false,
      "inputs": [],
      "name": "assess",
      "outputs": [],
      "payable": true,
      "stateMutability": "payable",
      "type": "function"
    },
    {
      "constant": false,
      "inputs": [],
      "name": "withdraw",
      "outputs": [],
      "payable": false,
      "stateMutability": "nonpayable",
      "type": "function"
    }
  ],
  "bytecode": "0x608060405234801561001057600080fd5b50336000806101000a81548173ffffffffffffffffffffffffffffffffffffffff021916908373ffffffffffffffffffffffffffffffffffffffff16021790555061095b806100606000396000f3fe608060405260043610610099576000357c0100000000000000000000000000000000000000000000000000000000900463ffffffff1680630c411d391461009e5780633ccfd60b146100cd578063467738fc146100e457806350eb30041461013b5780639d24e4821461016a578063a6a25e88146101c1578063a8b42f1f146101cb578063bf5b68f1146101e2578063db23e77f14610211575b600080fd5b3480156100aa57600080fd5b506100b3610268565b604051808215151515815260200191505060405180910390f35b3480156100d957600080fd5b506100e261027b565b005b3480156100f057600080fd5b506100f9610348565b604051808273ffffffffffffffffffffffffffffffffffffffff1673ffffffffffffffffffffffffffffffffffffffff16815260200191505060405180910390f35b34801561014757600080fd5b5061015061036d565b604051808215151515815260200191505060405180910390f35b34801561017657600080fd5b5061017f610380565b604051808273ffffffffffffffffffffffffffffffffffffffff1673ffffffffffffffffffffffffffffffffffffffff16815260200191505060405180910390f35b6101c96103a6565b005b3480156101d757600080fd5b506101e0610628565b005b3480156101ee57600080fd5b506101f76107a2565b604051808215151515815260200191505060405180910390f35b34801561021d57600080fd5b506102266107b5565b604051808273ffffffffffffffffffffffffffffffffffffffff1673ffffffffffffffffffffffffffffffffffffffff16815260200191505060405180910390f35b600460009054906101000a900460ff1681565b600460009054906101000a900460ff1680156102e457503373ffffffffffffffffffffffffffffffffffffffff16600460019054906101000a900473ffffffffffffffffffffffffffffffffffffffff1673ffffffffffffffffffffffffffffffffffffffff16145b15156102ef57600080fd5b6000600554905060006005819055503373ffffffffffffffffffffffffffffffffffffffff166108fc829081150290604051600060405180830381858888f19350505050158015610344573d6000803e3d6000fd5b5050565b6000809054906101000a900473ffffffffffffffffffffffffffffffffffffffff1681565b600160149054906101000a900460ff1681565b600460019054906101000a900473ffffffffffffffffffffffffffffffffffffffff1681565b600460009054906101000a900460ff1615801561046757506000809054906101000a900473ffffffffffffffffffffffffffffffffffffffff1673ffffffffffffffffffffffffffffffffffffffff163373ffffffffffffffffffffffffffffffffffffffff1614806104665750600160009054906101000a900473ffffffffffffffffffffffffffffffffffffffff1673ffffffffffffffffffffffffffffffffffffffff163373ffffffffffffffffffffffffffffffffffffffff16145b5b151561047257600080fd5b6000809054906101000a900473ffffffffffffffffffffffffffffffffffffffff1673ffffffffffffffffffffffffffffffffffffffff163373ffffffffffffffffffffffffffffffffffffffff1614156105135760001515600160149054906101000a900460ff1615151415156104e957600080fd5b60018060146101000a81548160ff02191690831515021790555034600254016002819055506105b2565b600160009054906101000a900473ffffffffffffffffffffffffffffffffffffffff1673ffffffffffffffffffffffffffffffffffffffff163373ffffffffffffffffffffffffffffffffffffffff1614156105b15760001515600160159054906101000a900460ff16151514151561058b57600080fd5b60018060156101000a81548160ff02191690831515021790555034600354016003819055505b5b600160149054906101000a900460ff1680156105da5750600160159054906101000a900460ff165b156106265760035460025410151561061c57610617600160009054906101000a900473ffffffffffffffffffffffffffffffffffffffff166107db565b610625565b6106246108b4565b5b5b565b600073ffffffffffffffffffffffffffffffffffffffff16600160009054906101000a900473ffffffffffffffffffffffffffffffffffffffff1673ffffffffffffffffffffffffffffffffffffffff1614151561068557600080fd5b33600160006101000a81548173ffffffffffffffffffffffffffffffffffffffff021916908373ffffffffffffffffffffffffffffffffffffffff1602179055507f5c0cd3433ab9e1333bab7e23ff511a9d45954f93c3beb477525875a7a9d87f126000809054906101000a900473ffffffffffffffffffffffffffffffffffffffff16600160009054906101000a900473ffffffffffffffffffffffffffffffffffffffff16604051808373ffffffffffffffffffffffffffffffffffffffff1673ffffffffffffffffffffffffffffffffffffffff1681526020018273ffffffffffffffffffffffffffffffffffffffff1673ffffffffffffffffffffffffffffffffffffffff1681526020019250505060405180910390a1565b600160159054906101000a900460ff1681565b600160009054906101000a900473ffffffffffffffffffffffffffffffffffffffff1681565b6001600460006101000a81548160ff02191690831515021790555080600460016101000a81548173ffffffffffffffffffffffffffffffffffffffff021916908373ffffffffffffffffffffffffffffffffffffffff160217905550600354600254016005819055507f0a06d767e0494a9a31cc37a747a88f58a1cc51721f66463644618bcec1017bcc81600554604051808373ffffffffffffffffffffffffffffffffffffffff1673ffffffffffffffffffffffffffffffffffffffff1681526020018281526020019250505060405180910390a150565b6000600160146101000a81548160ff0219169083151502179055506000600160156101000a81548160ff0219169083151502179055507f4a06b026e39d5ecf4150ef1983227e240bcd23677c8d89479f9521c4e7bed63e600254600354604051808381526020018281526020019250505060405180910390a156fea165627a7a7230582046b136025bba1c981fea155d85aa422d164fce318e943bd075bff802e24c51290029",
  "source": "pragma solidity ^0.5.0;\r\n\r\n/**\r\n    * Example script for the Ethereum development walkthrough\r\n    Source URL: \r\n    https://github.com/devzl/ethereum-walkthrough-1/blob/master/Wrestling.sol\r\n    */\r\n\r\ncontract SecondOpinion {\r\n    //struct Lawyer {\r\n    //    uint id; \r\n    //    string name;\r\n    //    uint lawyersCount;\r\n    //}\r\n\r\n    address public lawyer1;\r\n\r\n    address public lawyer2;\r\n\r\n    bool public lawyer1assessed;\r\n\r\n    bool public lawyer2assessed;\r\n\r\n    uint private lawyer1Assessment;\r\n\r\n    uint private lawyer2Assessment;\r\n\r\n    bool public assessmentFinished;\r\n\r\n    address public theWinner;\r\n\r\n    uint gains;\r\n\r\n    //uint lawyersCount;\r\n    //\r\n    // Store Lawyers ID\r\n    //uint public id; // added for tracking the Lawyers ID\r\n\r\n    // Fetch Lawyers\r\n    //mapping(uint => Lawyer) public lawyers;\r\n\r\n    /**\r\n    * The logs that will be emitted in every step of the contract's life cycle\r\n    */\r\n    event AssessmentStartsEvent(address lawyer1, address lawyer2);\r\n    event EndOfRoundEvent(uint lawyer1Assessment, uint lawyer2Assessment);\r\n    event AssessmentFinishedEvent (address winner, uint gains);\r\n\r\n    /**\r\n    * The contract constructor\r\n    */\r\n    constructor() SecondOpinion() public {\r\n        lawyer1 = msg.sender;\r\n        //addLawyer(\"John Doe\");\r\n        //addLawyer(\"Jane Roe\");\r\n        // addLawyer(\"Crypto Lawyer\");\r\n    }\r\n\r\n    //function addLawyer (string memory _name) private {\r\n    //    lawyersCount ++;\r\n    //    lawyers[lawyersCount] = Lawyer(lawyersCount, _name, 0);\r\n        // lawyers[lawyersCount] = Lawyer(lawyersCount, _name);\r\n\r\n\r\n    /**\r\n    * A second lawyer can register as an opponent\r\n    */\r\n    function registerAsAnOpponent() public {\r\n        require(lawyer2 == address(0));\r\n\r\n        lawyer2 = msg.sender;\r\n\r\n        emit AssessmentStartsEvent(lawyer1, lawyer2);\r\n    }\r\n\r\n    /**\r\n    * Every round a lawyer can put a sum of ether, if one of the lawyers put in twice or\r\n    * less the money (in total) than the other did, the first wins\r\n    */\r\n    function assess() public payable {\r\n    \trequire(!assessmentFinished && (msg.sender == lawyer1 || msg.sender == lawyer2));\r\n\r\n    \tif(msg.sender == lawyer1) {\r\n    \t\trequire(lawyer1assessed == false);\r\n    \t\tlawyer1assessed = true;\r\n    \t\tlawyer1Assessment = lawyer1Assessment + msg.value;\r\n    \t} else if (msg.sender == lawyer2){\r\n    \t\trequire(lawyer2assessed == false);\r\n    \t\tlawyer2assessed = true;\r\n    \t\tlawyer2Assessment = lawyer2Assessment + msg.value;\r\n    \t} \r\n\r\n    \tif(lawyer1assessed && lawyer2assessed) {\r\n    \t\tif(lawyer1Assessment >= lawyer2Assessment) {\r\n                endOfAssessment(lawyer2);\r\n    \t\t} else {\r\n                endOfRound();\r\n            }\r\n    \t}\r\n    }\r\n\r\n    function endOfRound() internal {\r\n    \tlawyer1assessed = false;\r\n    \tlawyer2assessed = false;\r\n\r\n    \temit EndOfRoundEvent(lawyer1Assessment, lawyer2Assessment);\r\n    }\r\n\r\n    function endOfAssessment(address winner) internal {\r\n        assessmentFinished = true;\r\n        theWinner = winner;\r\n\r\n        gains = lawyer1Assessment + lawyer2Assessment;\r\n        emit AssessmentFinishedEvent (winner, gains);\r\n    }\r\n\r\n    /**\r\n    * The withdraw function, following the withdraw pattern shown and explained here:\r\n    * http://solidity.readthedocs.io/en/develop/common-patterns.html#withdrawal-from-contracts\r\n    */\r\n    function withdraw() public {\r\n        require(assessmentFinished && theWinner == msg.sender);\r\n\r\n        uint amount = gains;\r\n\r\n        gains = 0;\r\n        msg.sender.transfer(amount);\r\n    }\r\n}",
  "sourcePath": "C:/helloworld/APS1050_Programming_Two/contracts/SecondOpinion.sol",
  "compiler": {
    "name": "solc",
    "version": "0.5.0+commit.1d4f565a.Emscripten.clang"
  },
  "schemaVersion": "3.4.0",
  "updatedAt": "2021-05-04T08:28:00.597Z",
  "networkType": "ethereum",
  "devdoc": {
    "methods": {}
  },
  "userdoc": {
    "methods": {
      "assess()": {
        "notice": "Every round a lawyer can put a sum of ether, if one of the lawyers put in twice or\r less the money (in total) than the other did, the first wins\r"
      },
      "constructor": "The contract constructor\r",
      "registerAsAnOpponent()": {
        "notice": "A second lawyer can register as an opponent\r"
      },
      "withdraw()": {
        "notice": "The withdraw function, following the withdraw pattern shown and explained here:\r http://solidity.readthedocs.io/en/develop/common-patterns.html#withdrawal-from-contracts\r"
      }
    },
    "notice": "Example script for the Ethereum development walkthrough\r Source URL: \r https://github.com/devzl/ethereum-walkthrough-1/blob/master/Wrestling.sol\r"
  }
}